S00D00006170706C692E7372656301
S1130000E020002019010000150100001501000086
S113001000000000000000000000000000000000DC
S113002000000000000000000000000015010000B6
S11300300000000000000000150100001501000090
S11300401501000015010000150100001501000054
S11300501501000015010000150100001501000044
S11300601501000015010000150100001501000034
S11300701501000015010000150100001501000024
S11300801501000015010000150100001501000014
S11300901501000015010000150100001501000004
S11300A0150100001501000015010000000000000A
S11300B00000000010B5064C2378002B07D1054B37
S11300C0002B02D0044800E000BF0123237010BDC0
S11300D0700000200000000098110000084B10B5CB
S11300E0002B03D00749084800E000BF0748036815
S11300F0002B00D110BD064B002BFBD09847F9E72D
S11301000000000074000020981100009811000005
S113011000000000FEE70000F8B52A4A2A4B9A4284
S113012011D01A00294B9A420DD2294A03339B1A43
S11301309B0801339B000022234822498C58845099
S113014004329A42FAD1234A234B9A420AD2D34325
S113015021495B1803218B4304339B18002102C2FD
S11301609342FCD11D4AFF211D4B8B439360FD3903
S113017090235B001B4AD1501B4AD3780325AB4321
S113018002242343D370D3780C27BB43082633437C
S1130190D370164B987B30229043202210439873DF
S11301A0997BB943314399739A7BAA4322439A7347
S11301B00F4A536880210B4353600E4B98470E4BF4
S11301C09847FEE79811000000000020700000200E
S11301D00400002070000020E000002000ED00E09A
S11301E00000000000700041005000410048004140
S11301F0004000411D0F00001D0B000070B50020E1
S1130200084B98470500084CFA218900A047074B82
S1130210186007492800A047064B18600522064BC2
S11302201A6070BD49080000DD0B000000000020CA
S113023040420F000400002010E000E030B5084BFD
S11302401C68084A002580214902013807D3002C84
S1130250FBD05460956013680B42FCD0F5E730BDC9
S11302600400002010E000E030B5084B1C68084A88
S1130270002580214902013807D3002CFBD05460AB
S1130280956013680B42FCD0F5E730BD00000020F8
S113029010E000E00368987AC009704770B5040064
S11302A00668054D2000A8470028FBD133880222A8
S11302B01343338070BDC0469502000070B504003E
S11302C00668064D2000A8470028FBD1C123B3715E
S11302D03372338802229343338070BD9502000049
S11302E070B504000668064B9847064D2000A847E1
S11302F00028FBD1338801221343338070BDC046EC
S1130300BD02000095020000F0B583B00400019125
S113031015000668114F2000B8470028FBD1237947
S1130320002B0AD0012B16D11730012D14D8063515
S1130330AD00019BAB5100200EE01720022D0BD81D
S1130340074B019A9A4207D86B469B880C356D007F
S1130350AB53002000E01A2003B0F0BD950200006A
S1130360FFFF0000F0B583B0040016000160304ABE
S1130370936920210B43936101A902230B7004208C
S11303802C4B984704202C4B984720002B4B984724
S1130390B378237133796371294B1C6027683388E0
S11303A03B80B378002B26D01720012B21D13B882A
S11303B09BB23B80F378002B03D03B88802213430D
S11303C03B80204D2000A8470028FBD10022B168C3
S11303D020001D4B984733790020002B09D07B88DF
S11303E08022D20113437B807B8880221202134334
S11303F07B8003B0F0BD3B88042213433B80F37839
S11304001720002BF5D10F4D2000A8470028FBD161
S11304100022B16820000C4B98470A4D2000A847E1
S11304200028FBD10122F1682000074B9847D2E74E
S11304300004004061090000D5080000E10200004A
S1130440B800002095020000090300000C4B1B6853
S1130450002B06D1EFF31083002B07D00022094BA9
S11304601A70074A136801331360704772B6BFF3FA
S11304705F8F0022044B1A700132024B1A70F0E7AE
S11304808C0000209000002008000020084B1A680F
S1130490013A1A601B68002B09D1064B1B78002B0C
S11304A005D00122044B1A70BFF35F8F62B6704708
S11304B08C0000209000002008000020F0B583B0DC
S11304C001AC012565700027A77025702100132059
S11304D0064EB04780221203054B9A61277065705F
S11304E021001C20B04703B0F0BDC046F504000055
S11304F00044004100B583B001AB80221A700A7831
S11305005A704A789A708A78DA701900014B9847C1
S113051003B000BD590A000010B5082803D88000B4
S11305201C4B1B589F46002032E01B4B18692FE0E0
S11305301A4B1B6A9B059B0F1948D84028E0164BA1
S1130540586925E0144B1B6800209B0720D51349EC
S11305501022CB681A42FCD00F4B1A682423134094
S1130560042B01D00F4813E000200F4B98470A4B8F
S11305709B681B041B0C58430AE05023074AD35CB6
S113058000205B0704D5044BD86801E080200002FA
S113059010BDC04630110000940000200008004047
S11305A000127A00006CDC027D09000070B50C4971
S11305B00B6A047885784078012210408001402637
S11305C0B34303432A40D2018020834313430322CD
S11305D0224012020348034013430B6270BDC0461D
S11305E000080040FFFCFFFF082803D88000254BCB
S11305F01B589F46172044E0234A136A02210B43E9
S1130600136200203DE0204A936902210B43936169
S1130610002036E01C4A138A02210B431382002077
S11306202FE0194A938A02210B439382002028E089
S113063016490B68022213430B60134B9A8419006A
S11306400E32CB681A42FCD0104A91680E4BD96224
S113065052689A6200229A8419001032CB681A42B6
S1130660FCD00A4B1B689BB2074A9384002008E025
S1130670054944228B5C022003438B54002000E094
S1130680002070475411000000080040940000202E
S113069030B585B0C222D2001A4B9A601A4A536808
S11306A01E218B43536001236A4613700024174DA7
S11306B0E0B26946A8470134252CF9D103A80024E7
S11306C04470012585700470114B98470620114B26
S11306D09847114B9847114B1C725C729C72DC72E8
S11306E001956B465C7006236A461370147254724B
S11306F0694600200A4B984700200A4B984705B0EA
S113070030BDC046000800400040004161090000BF
S1130710AD050000E90500002907000000040040C1
S11307204D07000005080000064A936908210B43A1
S113073093610122044B1A7019000B781342FCD107
S11307407047C04600040040000C004070B506002D
S113075004000D782D0205434B78002B02D0802332
S1130760DB021D434B7A002B02D080231B031D4365
S11307704868012810D9431E184234D1022830D9C0
S11307800223002201325B009842FBD8120232435A
S1130790140080235B031D430B7A002B02D08023BB
S11307A09B031D43134A53785BB2002BFBDB124BB4
S11307B09847124B1E700F4A53785BB2002BFBDB39
S11307C00C4B9C601A0053785BB2002BFBDB094A8C
S11307D05368802149020B401D435560084B9847DC
S11307E070BD0022D2E70402344380239B021D43E0
S11307F0D2E7C046000C00404D040000080C004045
S11308008D04000010B504000B4A53785BB2002B32
S1130810FBDB0A4B98470A4B1C70074A53785BB2C0
S1130820002BFBDB044A516880235B020B435360BB
S1130830044B984710BDC046000C00404D04000016
S1130840040C00408D04000070B504001A4A53786B
S11308505BB2002BFBDB194B9847194B1C70164AF3
S113086053785BB2002BFBDB134E7068C004C00EE0
S1130870144B98470500124B1C707668F602F60F6D
S1130880114B1C700C4A53785BB2002BFBDB0A4BF8
S11308909C682402240C0D4B9847002E07D1012C90
S11308A007D9210028000A4B9847050001E00134CC
S11308B0E540280070BDC046000C00404D04000017
S11308C0040C004019050000080C00408D040000D1
S11308D0DD0B000010B50400064B9847064B1C7056
S11308E0064A53888021C9010B435380044B98471F
S11308F010BDC0464D040000020C0040000C004036
S11309008D04000010B504000F4B98470F4B1C706A
S11309100F4A53881B05180F53880E490B40538008
S113092053880D490B40538011008022D2014B881B
S11309301342FCD106494A88030206480240134385
S11309404B80064B984710BD4D040000020C00403C
S1130950000C0040FFF0FFFFFFBFFFFF8D0400000D
S113096010B50C7824020443024B9847A4B2024BFE
S11309705C8010BD05090000000C004010B50400A7
S1130980064B9847064B1C70064B5C882405240FC5
S1130990054B98472000054B984710BD4D040000B7
S11309A0020C0040000C00408D04000049080000C7
S11309B030B5D378002B35D11378802B29D01B0682
S11309C080246402234354780225AC4306D19478EE
S11309D0002C20D18024A402234341605478013C9C
S11309E0012C1CD90D042D0CA024E4052C431C431C
S11309F084620D0CD02424062C431C438462D478D6
S1130A00002C22D15B031CD59378012B1ED04161AD
S1130A1017E00023D7E7C024E4022343DDE70D4CAD
S1130A202340DFE741600C04240CA023DB052343AF
S1130A3083620C0CD0231B0623438362D378002BE0
S1130A4003D15378013B012B02D930BD8161F8E712
S1130A508160FAE7FFFFFBFF10B50A00C10900231C
S1130A60002904D14309DB0105498C4663441F2452
S1130A702040012181401800024B984710BDC04618
S1130A8000440041B10900007047000010B5054B57
S1130A909847054B9847054B9847054B9847054B96
S1130AA0984710BD91060000BD040000890A0000AB
S1130AB0890A0000890A00000300064A1268002A15
S1130AC004D0044A1068C318136070470249014AED
S1130AD01160F6E7AC000020E020002010B584B0DF
S1130AE000236A46D3700393138093700123137118
S1130AF0FA239B000293054C05492000054B9847B7
S1130B002000054B984704B010BDC046BC0000202F
S1130B1000140040650300009D020000F0B5CE46BD
S1130B2000B582B0214B9847214B984701A9012376
S1130B304B7000228A700B7013201E4B9847802242
S1130B4012031D4B9A611D4B984702201C4B98477A
S1130B501C481D4B98470A24174E80273F03B9466B
S1130B601A4D0BE001201A4B9847B761FA20400058
S1130B70154B9847013CE4B2002C11D04B467361ED
S1130B80A8471449144B98473231EBD00F4B984780
S1130B901049114B9847323108000B4B9847E4E752
S1130BA0002002B004BC9146F0BDC0468D0A00008E
S1130BB0FD010000F504000000440041DD0A0000CE
S1130BC0650F00008813000069020000C10F0000D7
S1130BD03D020000B80B0000BD0E000000224308D7
S1130BE08B4274D303098B425FD3030A8B4244D3F1
S1130BF0030B8B4228D3030C8B420DD3FF22090233
S1130C0012BA030C8B4202D31212090265D0030BF1
S1130C108B4219D300E0090AC30B8B4201D3CB03E7
S1130C20C01A5241830B8B4201D38B03C01A524129
S1130C30430B8B4201D34B03C01A5241030B8B422B
S1130C4001D30B03C01A5241C30A8B4201D3CB0216
S1130C50C01A5241830A8B4201D38B02C01A5241FB
S1130C60430A8B4201D34B02C01A5241030A8B42FE
S1130C7001D30B02C01A5241CDD2C3098B4201D316
S1130C80CB01C01A524183098B4201D38B01C01A94
S1130C90524143098B4201D34B01C01A524103090B
S1130CA08B4201D30B01C01A5241C3088B4201D3BA
S1130CB0CB00C01A524183088B4201D38B00C01A67
S1130CC0524143088B4201D34B00C01A5241411A8E
S1130CD000D20146524110467047FFE701B500209B
S1130CE000F0F0F802BDC0460029F7D076E770475F
S1130CF003460B437FD4002243088B4274D3030979
S1130D008B425FD3030A8B4244D3030B8B4228D319
S1130D10030C8B420DD3FF22090212BA030C8B423F
S1130D2002D31212090265D0030B8B4219D300E0DF
S1130D30090AC30B8B4201D3CB03C01A5241830B64
S1130D408B4201D38B03C01A5241430B8B4201D314
S1130D504B03C01A5241030B8B4201D30B03C01A3D
S1130D605241C30A8B4201D3CB02C01A5241830AB7
S1130D708B4201D38B02C01A5241430A8B4201D3E6
S1130D804B02C01A5241030A8B4201D30B02C01A10
S1130D905241CDD2C3098B4201D3CB01C01A524177
S1130DA083098B4201D38B01C01A524143098B4200
S1130DB001D34B01C01A524103098B4201D30B01E9
S1130DC0C01A5241C3088B4201D3CB00C01A52410E
S1130DD083088B4201D38B00C01A524143088B42D3
S1130DE001D34B00C01A5241411A00D2014652416C
S1130DF0104670475DE0CA0F00D04942031000D38B
S1130E004042534000229C4603098B422DD3030ADF
S1130E108B4212D3FC22890112BA030A8B420CD3EF
S1130E20890192118B4208D3890192118B4204D318
S1130E3089013AD0921100E08909C3098B4201D398
S1130E40CB01C01A524183098B4201D38B01C01AD2
S1130E50524143098B4201D34B01C01A5241030949
S1130E608B4201D30B01C01A5241C3088B4201D3F8
S1130E70CB00C01A524183088B4201D38B00C01AA5
S1130E805241D9D243088B4201D34B00C01A52417C
S1130E90411A00D20146634652415B10104601D309
S1130EA04042002B00D54942704763465B1000D393
S1130EB0404201B5002000F005F802BD0029F8D039
S1130EC016E770477047C046F0B5CE46474615044E
S1130ED02D0C2E0080B50704140C3F0C9946030C0E
S1130EE07E435D43674363437F19340CE4199C4696
S1130EF0A54203D980235B029846C4444B46514320
S1130F0043433604360C250C24046544A4195918AB
S1130F10491920000CBC90469946F0BD70B50026D6
S1130F200C4D0D4C641BA410A64209D1002600F000
S1130F3023F90A4D0A4C641BA410A64205D170BDC6
S1130F40B300EB5898470136EEE7B300EB589847E7
S1130F500136F2E7841100008411000084110000BE
S1130F6088110000104B70B51C680500A36B002BA2
S1130F7015D1182000F060F80C4BA06303800C4BD3
S1130F80012243800B4B83800B4BC3800B4B0381AB
S1130F9005234381063383810023026143610022D8
S1130FA0A36B1D615A6170BD0C0000200E3300005C
S1130FB0CDABFFFF341200006DE6FFFFECDEFFFF58
S1130FC0154B10B51C68A36B002B15D1182000F02D
S1130FD033F8124BA0630380114B01224380114B61
S1130FE08380114BC380114B038105234381063356
S1130FF08381002302614361A46B0D4A2069616906
S11310000C4BFFF761FF0122002380185941206136
S113101061614800400810BD0C0000200E33000040
S1131020CDABFFFF341200006DE6FFFFECDEFFFFE7
S11310302D7F954C2DF4515810B5034B01001868C1
S113104000F004F810BDC0460C000020032370B566
S1131050CD1C9D43083506000C2D1ED20C25A9423B
S11310601DD8300000F062F8254A146821000029D8
S113107019D1244C2368002B03D1300000F044F82C
S113108020602900300000F03FF8431C2CD10C23D1
S11310903000336000F04BF803E0002DDFDA0C235E
S11310A03360002070BD0B685B1B1AD40B2B03D973
S11310B00B60CC18256003E08C420ED1636813608A
S11310C0300000F034F8200007220B30231D904339
S11310D0C31AE7D05A42E250E4E74B6863600C005D
S11310E0EEE70C004968C2E70323C41C9C43A042FA
S11310F0E0D0211A300000F007F8431CDAD1C6E72B
S1131100B0000020B4000020002370B5064C050098
S113111008002360FFF7D0FC431C03D12368002B95
S113112000D02B6070BDC046DC00002070477047C3
S11311302A05000026050000260500008C05000095
S11311408C0500003E050000300500004405000049
S11311507A05000014060000F4050000F405000000
S1131160800600000606000022060000F8050000C4
S11311703006000070060000F8B5C046F8BC08BC94
S11311809E467047DD000000F8B5C046F8BC08BCB8
S10B11909E467047B500000003
S1131198401F0000080000000100000010000020AB
S11311A80000000000000000000000000000000033
S11311B80000000000000000000000000000000023
S11311C80000000000000000000000000000000013
S11311D80000000000000000000000000000000003
S11311E800000000000000000000000000000000F3
S11311F800000000000000000000000000000000E3
S9030119E2
