:1000000090210020190100001501000015010000D9
:1000100000000000000000000000000000000000E0
:1000200000000000000000000000000015010000BA
:100030000000000000000000150100001501000094
:100040001501000015010000150100001501000058
:100050002107000015010000150100001501000036
:100060001501000015010000150100001501000038
:100070001501000015010000150100001501000028
:100080001501000015010000950200001501000097
:100090001501000015010000150100001501000008
:1000A000150100001501000015010000000000000E
:1000B0000000000010B5064C2378002B07D1054B3B
:1000C000002B02D0044800E000BF0123237010BDC4
:1000D0009C00002000000000BC3D0000084B10B553
:1000E000002B03D00749084800E000BF0748036819
:1000F000002B00D110BD064B002BFBD09847F9E731
:1001000000000000A0000020BC3D0000BC3D00003D
:1001100000000000FEE70000F8B52A4A2A4B9A4288
:1001200011D01A00294B9A420DD2294A03339B1A47
:100130009B0801339B000022234822498C5884509D
:1001400004329A42FAD1234A234B9A420AD2D34329
:1001500021495B1803218B4304339B18002102C201
:100160009342FCD11D4AFF211D4B8B439360FD3907
:1001700090235B001B4AD1501B4AD3780325AB4325
:1001800002242343D370D3780C27BB430826334380
:10019000D370164B987B30229043202210439873E3
:1001A000997BB943314399739A7BAA4322439A734B
:1001B0000F4A536880210B4353600E4B98470E4BF8
:1001C0009847FEE7BC3D0000000000209C00002096
:1001D000040000209C0000209001002000ED00E0C1
:1001E0000000000000700041005000410048004144
:1001F00000400041953A0000B11D0000931C9B0097
:100200001950022A09D0032A0CD0012393401A0066
:10021000037E1343037600207047037E10221343AE
:100220000376F8E7037E202213430376F3E700000A
:1002300070B58000164BC45823689D7B227E637E78
:1002400013401D40EB0706D4AB070BD4EB0610D4CC
:10025000AB0615D470BD2000A3689847012322681F
:100260009373F1E72000E3689847022322689373B1
:10027000ECE7200023699847102322689373E7E78F
:10028000200063699847236820229A73E2E7C046FA
:10029000E800002010B50020014B984710BDC04673
:1002A0003102000030B587B001A90C4B0A0032CBF7
:1002B00032C212CB12C2019B98420BD0012301A97A
:1002C0009A005258824206D00133052BF8D1002003
:1002D00007B030BD0023D8B2FAE7C046A83C000002
:1002E00070B582B004000D00160008007A4B9847E4
:1002F0000023A360E3602361636123766376820059
:10030000764BD4502560B378082B07D023712B8807
:100310000522DB0706D5100002B070BD1722C10709
:10032000F9D5F3E7EB7B1732DB06F4D42B889B0778
:10033000F1D4337C002B5FD1337F002B68D1684A26
:10034000116A80231B010B431362B378082B6FD013
:1003500033786A46137069461B20624B98471B200E
:10036000614B98473189B3880B43B178B279114317
:1003700019437378002B02D080231B011943226894
:10038000D37B5BB2002BFBDB2980717B4B1E994139
:100390008900B37B002B01D0012319432268D37B52
:1003A0005BB2002BFBDBFF232B71002905D02268F9
:1003B000D37B5BB2002BFBDB6971B17AF37A002B44
:1003C00001D010231943337B002B01D02023194384
:1003D0002268D37B5BB2002BFBDBA9712268D37B45
:1003E0005BB2002BFBDB2379042B27D0082B5CD0DE
:1003F000002B44D017228EE701A901238B70002225
:10040000CA70327E0A704B70307D384B984793E744
:1004100001A901238B700022CA702432B21812780D
:100420000A704B701F33F3181878304B984786E7E3
:10043000116A80231B010B43136289E7D37B5BB2F4
:10044000002BFBDB2823F35C2B742268D37B5BB28D
:10045000002BFBDB2923F35C2B752268D37B5BB27B
:10046000002BFBDB2A23F35C2B762268D37B5BB269
:10047000002BFBDB2B23F35C6B7600224BE7D37B5B
:100480005BB2002BFBDB338D2B822268D37B5BB20C
:10049000002BFBDB738D2B832268D37B5BB2002B9D
:1004A000FBDBB38D6B83002235E7D37B5BB2002B84
:1004B000FBDBB36A2B612268D37B5BB2002BFBDBD7
:1004C000F36AAB612268D37B5BB2002BFBDB336B3F
:1004D000EB6100221FE7C046A5020000E8000020F3
:1004E0000004004059190000CD180000511A000006
:1004F0000268D37B5BB2002BFBDB0379042B05D0B6
:10050000082B0BD01720002B04D07047C9B21174F0
:100510000020FAE789B211820020F6E7116100207D
:10052000F3E70268D37B5BB2002BFBDB0379042B80
:1005300005D0082B09D00020002B03D07047107C79
:10054000C0B2FBE7108A80B2F8E71069F6E70168ED
:100550000322CB691A42FCD17047000070B5074BEB
:1005600018705970064A53601600064D064C31004B
:100570002800A0470028FAD170BDC0462000002006
:100580000C00002040010020C90C0000F8B5194CF7
:1005900025682000184FB8472B680226B3432B600C
:1005A00025682000B8472B6833432B60134B9847CE
:1005B0002000134B9847022805D0124B9847124B46
:1005C00098470020F8BD114B98470A4804680A4B29
:1005D000984723680222934323600D4B9847094BA9
:1005E00098470C4B98470021A0200B4B98470120BF
:1005F000E8E7C046800100204F050000691B0000AD
:10060000890F0000D51C0000911C0000411C000057
:10061000D51A0000451D00005D050000F8B5040076
:100620001C4D002128001C4B98472A68D37B5BB2E5
:10063000002BFBDB00231371D37B5BB2002BFBDBB6
:1006400040235371154B164A53601B78A3421ED0AA
:100650001600144D144F31002800B8470D48134BB5
:100660009847632803D80D4B1B78A342F3D1A522EA
:100670000A4B1A70074B1A68D37B5BB2002BFBDB6B
:10068000802353711D3B834280414042F8BD0020CE
:10069000EDE7C04664010020F1040000580100208D
:1006A0001800002080010020710E000023050000CA
:1006B000044B1B68044B1868044B1B68044B1B68F5
:1006C000584070470CA0800040A0800044A08000EB
:1006D00048A080001723002A01D0180070478B0023
:1006E000064A9B58002B03D0834205D01D23F4E714
:1006F000890088500023F0E70023EEE70001002086
:100700001723002901D01800704700221F2800D8A5
:10071000024A01238340D3600023F4E7001800401D
:1007200070B50022104B1A70002310491F25104E7F
:100730000D4C0AE00D4908E023780133DBB2237049
:100740000F2B10D800211F2BF4D9280018400122AC
:10075000824008691042EFD00A619B009B59002B30
:10076000EAD09847E8E770BDFC0000200018004080
:1007700000010020044A137802210B4313705378C0
:100780005BB2002BFBDB70470018004000B583B064
:10079000124A936940210B43936101A900230B7016
:1007A00005200F4B984705200E4B98470E4A1378AB
:1007B00001210B43137053785BB2002BFBDB0B4B17
:1007C00019004031002204C39942FCD11022084B89
:1007D0001A60084B984703B000BDC04600040040B3
:1007E00059190000CD180000001800400001002039
:1007F00000E100E075070000002303604360012270
:100800000272427283720233C3727047F0B583B0D2
:1008100005000C0001A900234B70CB7023790B70ED
:10082000237A8B702078154B984700201F2D00D815
:10083000134807222A409200E77AA37A002B01D0BE
:1008400008231F43EB089B00C31899690F269640A5
:10085000B14397403A000A439A61637A002B06D16C
:1008600043690122AA409343436103B0F0BD42694A
:100870000123AB4013434361F7E7C046511A000020
:100880000018004001680722CB691A42FCD170476A
:10089000F0B5D6464F464646C0B58AB006000F00B2
:1008A000140031600800974B9847974A116A851CDD
:1008B0000123AB400B43136209A9237B0B70143057
:1008C000C5B22800914B98472800914B9847207B50
:1008D0000021904B98473B681C209B0705D50AB028
:1008E0001CBC90469946A246F0BD3B681738DB0712
:1008F000F5D414233B60336898461800814B984721
:100900000500802308AA137000235370012208A950
:100910008A70CB70E069276A002800D1AFE008AB8D
:100920001870022308AA5370000CC0B211007A4B51
:100930009847002F00D1A7E008AB1F70022308AA38
:1009400053703F0CF8B21100734B9847A38AF380A1
:10095000E38A3381237E8022002B04D16F4B9B7866
:100960009B07DB0FDA01A16823690B4313432422A1
:10097000A25C002A02D08022D2051343A26A13434C
:100980002C22A25C002A03D180229204914202D13F
:100990008022120513432D22A25C002A02D080225D
:1009A000120413432E22A25C002A02D08022D2031A
:1009B00013434246126813434246136080235B0090
:1009C000536028001430C0B2554B98470790FA2363
:1009D0009B0022685A43914663689A46514DA84746
:1009E000009001914B465800A84702900391208E39
:1009F000A847049005914C4F4C4A4D4B00980199E3
:100A0000B84702000B0004980599B847494E0022E8
:100A1000494BB047049005914846A84702000B0097
:100A200004980599B84702000B00444D00980199BD
:100A3000A847029A039BB0470022414BA847029A5D
:100A4000039B404DA847404B9847050080239B04DB
:100A5000A2689A421ED003004020FF2D00D93EE735
:100A600000240020FF251D40240625430004FF2309
:100A70001B04184005434346DD6000202FE700219A
:100A80004046324B98474AE7012140462F4B984752
:100A9000070051E7FA26B60053465E4300980199D5
:100AA00002000B00234CA0470090019130001D4B29
:100AB00098470022264BB84702000B000098019986
:100AC000204CA04700221E4B1C4CA0471E4B9847B1
:100AD000041E0CD0310007981E4B98470238001BAB
:100AE0002B00FF2D0CD8FF28BCD94020F7E6710061
:100AF000481E079B9C466044164B98470138EFE719
:100B00004020ECE67111000000040040591900007B
:100B1000CD180000AD0F0000511A00000020004168
:100B200075190000E9390000552E000095D626E819
:100B30000B2E113ECD210000000024405533000053
:100B40000000F03FED27000081390000F90F0000A0
:100B5000000008408D1E000003681A7E920707D52A
:100B600002221A765B8B9B074120DB1718407047E7
:100B70005A8B520706D55968C02292020A435A601E
:100B80001820F4E70020F2E730B5026800230124C2
:100B90000225117E21420BD1117E294206D101335B
:100BA0009BB201899942F4D8122002E0002000E0B3
:100BB000002030BD10B5046862688023DB02134357
:100BC00063606162024B98470123237610BDC046E3
:100BD000890B0000F0B5DE4657464E464546E0B567
:100BE00083B006000F0005684C88324B98477B7A2B
:100BF000002B1DD16B68304A13406B603B7A002B91
:100C00001BD03B885B007A7A920313438022120246
:100C100013436B623000294B98470190002813D092
:100C2000019803B03CBC90469946A246AB46F0BD45
:100C3000B97A3000224B9847DCE73B885B007A7A30
:100C4000920313436B62E5E730001E4B9847031E87
:100C50000190E5D1A046002420339946154B9B46D0
:100C6000164B9A46444515D06B8B4A4613421DD00D
:100C70003000D8477B681A5D2823EA543000D047FB
:100C8000002806D16B8B01345B07EBD51E23019343
:100C900000E00190B37A002BC2D03000054B98479A
:100CA0006A68C0239B0213436B60B9E74123019339
:100CB000B6E7C04685080000FFFFFBFF890B000078
:100CC000B50B0000590B000010B501238372C372ED
:100CD000014B984710BDC046D50B000001680322A8
:100CE000CB691A42FCD1704770B502680023042416
:100CF00001250226117E21420ED1117E29420DD1FD
:100D0000117E314206D101339BB2C1889942F1D89C
:100D1000122002E0002000E0002070BD0020FCE76F
:100D2000F0B585B005000C00160029600B681C208A
:100D30009B0701D505B0F0BD0B681738DB07F9D468
:100D40000800434B9847434B9C46196A831C012774
:100D50003A009A4013000B436246136203A9337EA4
:100D60000B701430C3B2019318003B4B98470198A5
:100D70003A4B9847307E0021394B98471023236027
:100D80002C683389EB80337C2B72802302AA13708A
:100D9000002353709770D370F069356A00284BD0E8
:100DA00002AB1870022302AA5370000CC0B21100EB
:100DB0002C4B9847002D44D002AB1D70022302AA91
:100DC00053702D0CE8B21100264B9847737E802299
:100DD000002B04D1244B9B789B07DB0FDA012523E2
:100DE000F35C002B04D180239B047169994202D1EA
:100DF00080231B051A432068736871690B43242103
:100E0000715C89070B432621715CC9050B430343C1
:100E100013432360728980235B0013436360B389AB
:100E20005B00F28952041343727C1343327CD20379
:100E30001343636200207DE7002120000B4B98479D
:100E4000AEE701212000094B98470500B4E7C046F2
:100E5000711100000004004059190000CD18000075
:100E6000AD0F0000511A000000200041F90F0000F2
:100E7000F8B5DE4657464E464546E0B507000E003B
:100E80000D881724002D06D120003CBC90469946C1
:100E9000A246AB46F8BD03689846384B9847041EF7
:100EA000F2D143461B7E1C349B07EDD543465A8B3B
:100EB00043230C3C1A42E7D143465B8B1B070ED5FC
:100EC00043465A688023DB0213434246536052680C
:100ED000C0239B021343424653600A34D4E743467F
:100EE0005B68274A1340424653605268C0239B0206
:100EF000134342465360013DADB26B1C9946002539
:100F00001E4B9A4601239B463800D047041EBBD196
:100F100043461B7E5A4613422BD143461B7E9B07FA
:100F200027D43800174B984728234246D35C726871
:100F3000535501354D45E7D13800104B984743468E
:100F40001B7E5B070CD543465A688023DB021343A4
:100F500042465360526880239B02134342465360CB
:100F600043461B7EDB0700D48EE7012342461376FF
:100F70008AE7012342461376042485E7E90C000042
:100F8000FFFFFBFFDD0C000010B50468064B98471F
:100F90000223002801D0180010BD227E9207FAD546
:100FA000638B1B07DB0FF6E7E90C000010B582B07E
:100FB00004000E4B1B78002B07D0002905D10B4BEA
:100FC0005B78834210D01D200CE001A90C70132027
:100FD000074B98471320074B9847044B5C7001223E
:100FE0001A70002002B010BD0020FBE7B8000020FE
:100FF00059190000CD180000404B984231D00AD951
:101000003F4B98424DD03F4B98425AD03E4B98426E
:1010100037D0002070473D4B98420CD03C4B984253
:10102000F7D1012917D000295DD0022915D0032955
:1010300015D00020EEE7012907D0002951D0022960
:1010400005D0032905D00020E4E73248E2E7324822
:10105000E0E73248DEE73248DCE73248DAE7324898
:10106000D8E7012907D000293FD0022905D003295C
:1010700005D00020CEE72D48CCE72D48CAE72D4803
:10108000C8E7012907D0002931D0022905D003295A
:1010900005D00020BEE72848BCE72848BAE7284822
:1010A000B8E7012907D0002923D0022905D0032958
:1010B00005D00020AEE72348ACE72348AAE7234841
:1010C000A8E7012907D0002915D0022905D0032956
:1010D00005D000209EE71E489CE71E489AE71E4860
:1010E00098E71E4896E7032094E71D4892E71D48BD
:1010F00090E71D488EE71D488CE7C046001000426F
:1011000000180042001C0042001400420008004287
:10111000000C004203000500030006000300070066
:101120000300010003001E0003001F0002000D0069
:1011300002000E0002000F00030011000300120065
:101140000300130005003F0005003E0005005200AB
:101150000300170003001800030019000300040037
:1011600002000C00030010000500530003001600ED
:1011700030B587B00B4B6A4632CB32C232CB32C26B
:10118000009B83420BD001239A0069465258824249
:1011900006D00133062BF7D1002007B030BD002365
:1011A000D8B2FAE7BC3C000070B50020084B984765
:1011B0000500084CFA218900A047074B1860074931
:1011C0002800A047064B18600522064B1A6070BD28
:1011D000411800008D1E00000000002040420F005A
:1011E0000400002010E000E030B5084B1C68084AFD
:1011F000002580214902013807D3002CFBD0546020
:10120000956013680B42FCD0F5E730BD0400002068
:1012100010E000E030B5084B1C68084A002580212A
:101220004902013807D3002CFBD054609560136845
:101230000B42FCD0F5E730BD0000002010E000E0DC
:101240000C4B1B68002B06D1EFF31083002B07D04B
:101250000022094B1A70074A136801331360704764
:1012600072B6BFF35F8F0022044B1A700132024B3B
:101270001A70F0E7BC000020C00000200800002029
:10128000084B1A68013A1A601B68002B09D1064BFB
:101290001B78002B05D00122044B1A70BFF35F8F1F
:1012A00062B67047BC000020C0000020080000208B
:1012B000F0B583B001AC012565700027A7702570DB
:1012C00021001320064EB04780221203054B9A617D
:1012D0002770657021001C20B04703B0F0BDC046E8
:1012E000E91200000044004100B583B001AB802248
:1012F0001A700A785A704A789A708A78DA701900E7
:10130000014B984703B000BD511A000010B50828E2
:1013100003D880001C4B1B589F46002032E01B4B1B
:1013200018692FE01A4B1B6A9B059B0F1948D84080
:1013300028E0164B586925E0144B1B6800209B07DA
:1013400020D513491022CB681A42FCD00F4B1A68E3
:1013500024231340042B01D00F4813E000200F4B2F
:1013600098470A4B9B681B041B0C58430AE0502308
:10137000074AD35C00205B0704D5044BD86801E022
:101380008020000210BDC046D43C0000C4000020F4
:101390000008004000127A00006CDC0275190000A1
:1013A00070B50C490B6A04788578407801221040AA
:1013B00080014026B34303432A40D2018020834367
:1013C00013430322224012020348034013430B62DB
:1013D00070BDC04600080040FFFCFFFFF0B5DE46D0
:1013E00057464E464546E0B50100264B9B469B8A34
:1013F000457800784242424191468878CA789446BE
:101400000A7990464E7B0F7B8C7B8A681E494A6125
:1014100001214A4692009146042293434A461343CF
:1014200042460A40D2009046082293434246134364
:1014300062460A40120194461022934362461343C7
:10144000084040012022934303430F40BF01402046
:1014500083433B430E40F6014030834333437938A6
:1014600005402D02094803402B4321400903084849
:1014700003400B435A4693823CBC90469946A24691
:10148000AB46F0BD00080040C4000020FFF8FFFF9D
:10149000FFEFFFFFF8B50500C468037D012B3BD0CB
:1014A000AB6818012100204B98470F220240030926
:1014B0002E78F601697889010E43F6B21B4944275C
:1014C000CE551604013B1B051B0D33438B64AB78D3
:1014D0001B03EE78F60033432E79B6003343AF7C1E
:1014E00003263E4033432E8A3604114F3E40334399
:1014F000EE7C3602E027FF003E4033432E7D36016E
:10150000302535402B43CB640F2398438018444348
:101510002409084BDC60F8BD018A01314900200034
:10152000014B98470400BBE78D1E000000080040F7
:101530000000FF07C4000020082803D88000254BC6
:101540001B589F46172044E0234A136A02210B438D
:10155000136200203DE0204A936902210B4393610E
:10156000002036E01C4A138A02210B43138200201C
:101570002FE0194A938A02210B439382002028E02E
:1015800016490B68022213430B60134B9A8419000F
:101590000E32CB681A42FCD0104A91680E4BD962C9
:1015A00052689A6200229A8419001032CB681A425B
:1015B000FCD00A4B1B689BB2074A9384002008E0CA
:1015C000054944228B5C022003438B54002000E039
:1015D00000207047F83C000000080040C4000020D4
:1015E00070B58EB0C222D200414B9A60414A536816
:1015F0001E218B43536002236A46137000243E4D24
:10160000E0B26946A8470134252CF9D10AA8002385
:1016100003708370802212028260C3700122027103
:1016200003738373053242704373344B984705202C
:10163000334B98472E490222CB681A42FCD02C4AE1
:10164000938A80210B43938209A8002444700125CA
:10165000857004702B4B98470620294EB0472A4BC3
:10166000984701956B465C701C725C7205236A4654
:10167000137069460120254B98470120244B984759
:1016800003A844708470C4700471224B836080236B
:101690001B02C36005820475C474847404701E4BFD
:1016A00098470820B047124850210322435C13405A
:1016B000032BFBD10E494422885C833B03438B54AC
:1016C000164A0023137253729372D372012201924D
:1016D0006A465370062269460A700B724B720020EC
:1016E0000A4B984700200A4B98470EB070BDC04681
:1016F000000800400040004159190000DD130000BF
:1017000039150000A1130000211700004517000043
:10171000FD170000006CDC0295140000000400407E
:10172000064A936908210B4393610122044B1A7006
:1017300019000B781342FCD17047C04600040040EA
:10174000000C004070B5060004000D782D02054322
:101750004B78002B02D08023DB021D434B7A002BF9
:1017600002D080231B031D434868012810D9431E63
:10177000184234D1022830D90223002201325B0002
:101780009842FBD812023243140080235B031D43AE
:101790000B7A002B02D080239B031D43134A5378FE
:1017A0005BB2002BFBDB124B9847124B1E700F4AAB
:1017B00053785BB2002BFBDB0C4B9C601A00537818
:1017C0005BB2002BFBDB094A5368802149020B40C6
:1017D0001D435560084B984770BD0022D2E70402B4
:1017E000344380239B021D43D2E7C046000C0040D7
:1017F00041120000080C00408112000010B50400E6
:101800000B4A53785BB2002BFBDB0A4B98470A4B21
:101810001C70074A53785BB2002BFBDB044A51680B
:1018200080235B020B435360044B984710BDC046B6
:10183000000C004041120000040C00408112000026
:1018400070B504001A4A53785BB2002BFBDB194BCE
:101850009847194B1C70164A53785BB2002BFBDB80
:10186000134E7068C004C00E144B98470500124B0D
:101870001C707668F602F60F114B1C700C4A5378F8
:101880005BB2002BFBDB0A4B9C682402240C0D4B43
:101890009847002E07D1012C07D9210028000A4BB8
:1018A0009847050001E00134E540280070BDC046BE
:1018B000000C004041120000040C00400D13000019
:1018C000080C0040811200008D1E000010B50400BD
:1018D000064B9847064B1C70064A53888021C90165
:1018E0000B435380044B984710BDC0464112000083
:1018F000020C0040000C00408112000010B50400F2
:101900000F4B98470F4B1C700F4A53881B05180F3D
:1019100053880E490B40538053880D490B40538028
:1019200011008022D2014B881342FCD106494A881B
:1019300003020648024013434B80064B984710BDF4
:1019400041120000020C0040000C0040FFF0FFFFBD
:10195000FFBFFFFF8112000010B50C782402044382
:10196000024B9847A4B2024B5C8010BDFD180000EA
:10197000000C004010B50400064B9847064B1C7045
:10198000064B5C882405240F054B98472000054B27
:10199000984710BD41120000020C0040000C0040AE
:1019A000811200004118000030B5D378002B35D1EA
:1019B0001378802B29D01B0680246402234354789B
:1019C0000225AC4306D19478002C20D18024A402B7
:1019D000234341605478013C012C1CD90D042D0C8B
:1019E000A024E4052C431C4384620D0CD02424065F
:1019F0002C431C438462D478002C22D15B031CD579
:101A00009378012B1ED0416117E00023D7E7C02453
:101A1000E4022343DDE70D4C2340DFE741600C0483
:101A2000240CA023DB05234383620C0CD0231B066C
:101A300023438362D378002B03D15378013B012BDE
:101A400002D930BD8161F8E78160FAE7FFFFFBFF53
:101A500010B50A00C1090023002904D14309DB01A4
:101A600005498C4663441F24204001218140180011
:101A7000024B984710BDC04600440041A919000020
:101A80007047000010B5054B9847054B9847054B2C
:101A90009847054B9847054B984710BDE115000046
:101AA000B1120000811A00008D070000811A0000A9
:101AB0000300064A1268002A04D0044A1068C318BA
:101AC000136070470249014A1160F6E7DC0000200C
:101AD0009021002010B58EB001AA642301931C4B05
:101AE000536000239360137313768021890311617F
:101AF00001214942D18291822531535493620831A8
:101B000053540131535401315354D7331386114B7D
:101B1000D361114B1362114C11492000114B9847AE
:101B200022680721D3691942FCD1136802210B43B3
:101B300013600A4BDC8800231020518B014204D132
:101B40000133A342F9D3102353830EB010BDC04616
:101B5000480D0000020010000200110040010020AA
:101B6000000C00429108000010B58AB000226B46BC
:101B70001A7080239B030193002369464A81CA811E
:101B80000B744B7405920B764B7624228B540132E6
:101B90008B5401328B5401236A468B810B4B079384
:101BA0000B4B0893FA239B000B810A4C0A49200037
:101BB0000A4B984722680321D3691942FCD1136864
:101BC00002210B4313600AB010BDC0460200100092
:101BD0000200110080010020000C0042210D0000D5
:101BE000BFF34F8F034A044BDA60BFF34F8FC046F9
:101BF000FDE7C0460400FA0500ED00E070B50B4BB0
:101C00009847FA2189000A4B9847C82909DC094CF2
:101C100080252D03A561FA208000074B9847656158
:101C200070BD0021A020054B9847F9E7393B000023
:101C30006D21000000440041151200005D05000008
:101C400010B584B001AC20000C4B984707230193DA
:101C50000023636002332372013BE372A37221000D
:101C60000720074B9847002207210648064B984754
:101C700000210720054B984704B010BDF90700006C
:101C80000D080000E11B0000D50600000107000060
:101C900000B583B001A901234B7000228A700B703C
:101CA0000720034B98478022024B5A6103B000BDC6
:101CB000E91200000044004170B5044C8025A56184
:101CC0003220034B9847656170BDC0460044004117
:101CD000E911000010B58EB001AA00230021937114
:101CE0001381002050709172D172117391735173EE
:101CF0001174536193611177136253621385538595
:101D0000938504339370033B1370E023DB009380CF
:101D100064212923D154084C08492000084B9847D6
:101D20002268D37B5BB2002BFBDB138802210B43C1
:101D300013800EB010BDC04664010020002C00428C
:101D4000E102000010B50A4C00220A4920000A4BAB
:101D500098472068094B98478022D202084B1A60A6
:101D6000637E012213436376236801225A7310BDF8
:101D700064010020FD1B0000FD010000A502000021
:101D800000E100E000B583B001A901234B700022FF
:101D90008A700B701320044B984780221203034B68
:101DA0009A6103B000BDC046E91200000044004142
:101DB000F0B5C64600B5244B9847244B9847244BB2
:101DC00098470122234B1A70BFF35F8F62B6002140
:101DD0002148224B9847224B9847224B9847224B49
:101DE00098472249224B98474B1C14D01E4B9847CA
:101DF0001E491F4B9847481C1E4B98471E4B98473F
:101E000080263603B0461D4F00280ED01C4A802382
:101E10001B035361FDE701201A4B9847EEE71A4B6D
:101E20009847154B98470028EED1154C43466361FF
:101E3000A020B8470500A661FA2080000D4B984706
:101E4000002DF3D0EBE7C046851A0000A911000071
:101E5000851D00000800002064010020F10400003E
:101E6000B1060000DD3A0000393B000010270000F9
:101E70006D210000151200008D0500001D060000F8
:101E800000440041E9110000B91C00000022430891
:101E90008B4274D303098B425FD3030A8B4244D332
:101EA000030B8B4228D3030C8B420DD3FF22090274
:101EB00012BA030C8B4202D31212090265D0030B33
:101EC0008B4219D300E0090AC30B8B4201D3CB0329
:101ED000C01A5241830B8B4201D38B03C01A52416B
:101EE000430B8B4201D34B03C01A5241030B8B426D
:101EF00001D30B03C01A5241C30A8B4201D3CB0258
:101F0000C01A5241830A8B4201D38B02C01A52413C
:101F1000430A8B4201D34B02C01A5241030A8B423F
:101F200001D30B02C01A5241CDD2C3098B4201D357
:101F3000CB01C01A524183098B4201D38B01C01AD5
:101F4000524143098B4201D34B01C01A524103094C
:101F50008B4201D30B01C01A5241C3088B4201D3FB
:101F6000CB00C01A524183088B4201D38B00C01AA8
:101F7000524143088B4201D34B00C01A5241411ACF
:101F800000D20146524110467047FFE701B50020DC
:101F900000F0F0F802BDC0460029F7D076E77047A0
:101FA00003460B437FD4002243088B4274D30309BA
:101FB0008B425FD3030A8B4244D3030B8B4228D35B
:101FC000030C8B420DD3FF22090212BA030C8B4281
:101FD00002D31212090265D0030B8B4219D300E021
:101FE000090AC30B8B4201D3CB03C01A5241830BA6
:101FF0008B4201D38B03C01A5241430B8B4201D356
:102000004B03C01A5241030B8B4201D30B03C01A7E
:102010005241C30A8B4201D3CB02C01A5241830AF8
:102020008B4201D38B02C01A5241430A8B4201D327
:102030004B02C01A5241030A8B4201D30B02C01A51
:102040005241CDD2C3098B4201D3CB01C01A5241B8
:1020500083098B4201D38B01C01A524143098B4241
:1020600001D34B01C01A524103098B4201D30B012A
:10207000C01A5241C3088B4201D3CB00C01A52414F
:1020800083088B4201D38B00C01A524143088B4214
:1020900001D34B00C01A5241411A00D201465241AD
:1020A000104670475DE0CA0F00D04942031000D3CC
:1020B0004042534000229C4603098B422DD3030A21
:1020C0008B4212D3FC22890112BA030A8B420CD331
:1020D000890192118B4208D3890192118B4204D35A
:1020E00089013AD0921100E08909C3098B4201D3DA
:1020F000CB01C01A524183098B4201D38B01C01A14
:10210000524143098B4201D34B01C01A524103098A
:102110008B4201D30B01C01A5241C3088B4201D339
:10212000CB00C01A524183088B4201D38B00C01AE6
:102130005241D9D243088B4201D34B00C01A5241BD
:10214000411A00D20146634652415B10104601D34A
:102150004042002B00D54942704763465B1000D3D4
:10216000404201B5002000F005F802BD0029F8D07A
:1021700016E770477047C046F0B5CE46474615048F
:102180002D0C2E0080B50704140C3F0C9946030C4F
:102190007E435D43674363437F19340CE4199C46D7
:1021A000A54203D980235B029846C4444B46514361
:1021B00043433604360C250C24046544A4195918ED
:1021C000491920000CBC90469946F0BDF8B545462B
:1021D000DE4657464E460C03E0B54E00C90F884612
:1021E0000D00610A440F0C43C70019035800DB0FB0
:1021F0009B464B0A510F0B43760D400D1900D20040
:10220000D84500D1AEE0351A002D00DCF6E00028FC
:102210000FD1134300D1DBE06B1E002B00D037E160
:10222000BA1A9742BF41641A7F42E41B0126170085
:1022300024E0C64B9E424DD080231B041943382D09
:1022400000DD07E11F2D00DD38E12020431B9A4609
:102250000B0050468340994613004846EB40184314
:10226000030050468240501E8241E9401A43BA1A88
:10227000611A9742A441170064420C1B230262D5E5
:102280006402650A002D00D1DFE0280001F0E4FBC4
:102290000300083B1F2B00DDD2E020223C00D21AB5
:1022A0009D40D4409F4025439E4200DDC4E09E1BDC
:1022B000731C1F2B00DDF1E0202238002900D21A08
:1022C000D840914097402C000143781E8741DC4064
:1022D00000260F437B0709D00F233B40042B05D07A
:1022E0003B1DBB42BF417F42E4191F0023022CD596
:1022F000964B01369E4200D19AE04546944BFF082A
:102300001C406007760564020743240B760D00210C
:102310002403230B0C0D8F4A24051C431440330562
:1023200023435B00ED075B082B43380019003CBCDE
:1023300090469946A246AB46F8BD6446044300D198
:1023400011E2040067467B07C6D145466007FF08D7
:102350000743E4087D4B9E4230D024037605240BCE
:10236000760DD4E7331A9A46002B78DD002831D059
:1023700076488642AED08020000401435346382B75
:1023800000DCE9E00A43511E8A410021D219BA4219
:10239000BF4109197C4217000C192302D3D56B4B9E
:1023A00001369E4200D13AE10120694B1C407B0876
:1023B00007401F43E007074364088BE723003B43C4
:1023C00000D1CBE18022120314432403240B9EE7A7
:1023D0002E007FE70800104300D1B4E0581E00280B
:1023E00000D0DEE0BA18BA429B4164185B42E418A0
:1023F000170001262302A6D50226D5E7002D6ED1AF
:10240000701C4005400D012800DCF9E0B81A844634
:1024100087428041E51A40422D1A280200D489E003
:10242000D71BBA4292411C1B5242A51AD84629E733
:102430004546002400276AE7454CF61A2C4049E738
:102440003D002838854000272EE7380001F004FBC6
:1024500020301DE70A43511E8A41002107E7002B67
:1024600000D0F3E0701C43055B0D012B00DCADE0F8
:10247000364B984200D1D1E0BA18BA42BF41641835
:102480007F42E419E707520817436408060021E772
:102490002E48854200D193E01D00D0E629001F3E62
:1024A000F140202B00D18DE04022D31A9D402F43D4
:1024B0007D1EAF4100240F43002644E72B00080097
:1024C000203BD8400300202D00D17DE04020451B5B
:1024D000A9400A43511E8A4100211A43C7E6002E33
:1024E00050D01A4EB04257D080266B4299463604DF
:1024F00034434B46382B00DDD6E01F2B00DD35E1A1
:102500002026F51A2600AE40B2463E00DE40AC461C
:10251000350056462E436546AF407D1EAF41DC4038
:102520003743D71BBA4292410C1B5242A41A0600F1
:10253000D846A3E6644667462C4300D0A2E60025B1
:102540000026002706E71E00C4E6C046FF0700007D
:10255000FFFF7FFFFFFF0F801F2B63DC2020C31ACC
:10256000080098409C46834653461000D84003001C
:102570005846184363469A40531E9A4153460243B5
:10258000D94003E726003E4306D0EB439946002B93
:10259000C7D0944EB042ACD10C0017000600D8460C
:1025A00098E6904B9A450BD08246E7E6002800D08B
:1025B0009EE01800104300D1E9E01C001700D84647
:1025C000884E87E6002572E7002182E723003B431F
:1025D000002E00D0ABE0002B00D1E7E00B0013434E
:1025E00000D177E6BA18BA42BF4164187F42E419B5
:1025F000230200D4F2E07C4B17001C40060069E681
:1026000020003843002ED1D100285BD11C00144398
:1026100000D1A8E01C001700D8465BE606000024A5
:10262000002797E650460B002038C3409946534692
:10263000202B00D195E0402350461B1A99400A43B5
:10264000511E8A414B4600211A439FE6002E30D18D
:1026500026003E4367D0DB439A46002B1CD0614ED8
:10266000B04260D05346382B00DD96E01F2B00DDD2
:102670009FE02026F31A26009E409C46B346534610
:102680003E00DE4033005E461E4363469F407B1E95
:102690009F415346DC403743BF189742924164182C
:1026A0005242A418060078E627437C1EA741002466
:1026B00037E74C4EB04236D080265B4236049A460D
:1026C0003443CFE71800104300D103E6B81A84461C
:1026D0006745AD41E01A6D42401B050200D42CE66F
:1026E000D71BBA4292411C1B5242A41AD846F1E5AC
:1026F0001800104300D163E7F808670707438020FC
:10270000E4080003044208D0DD08054205D1D208E0
:10271000590711430F002C00D8467B0FE4001C43DF
:10272000FF00304ED6E50C0017000600D2E5002B66
:1027300038D00B00134300D142E7F808670707437E
:102740008020E40800030442E7D0CB080342E4D130
:10275000D208490711430F001C00DEE700270024C0
:10276000D5E500216BE700250027F3E54E4625005F
:10277000203EF5404B462E00202B2DD04025ED1A53
:10278000AC4027437C1EA74100243743C9E6802480
:1027900000252403134E0027DCE527437C1EA741B8
:1027A000002479E70C0017000E4E93E50C0017008B
:1027B00090E556462300203EF34099465346202B91
:1027C0000ED0402356469B1B9C4027437C1EA741AE
:1027D0004B4600241F435FE70024D2E71700B2E511
:1027E0000024F2E7FF070000FFFF7FFFF0B5574628
:1027F0004546DE464E46E0B54C000E0387B08346A4
:1028000092461D008046360B640DCF0F002C4FD032
:102810006F4B9C4235D08023420F1B04F6001343BC
:1028200033439946C30098466A4B00269C460023D2
:10283000644403932B031B0B9B466B00ED0F504628
:102840005B0D01955ED0624A934253D05A46D10047
:102850008022400F120402430A4393465246D1009D
:102860005C4A9446002263443800684084460290E3
:10287000E41A16430F2E00D9B4E0574BB6009B590B
:102880009F460300334399466CD100239846023398
:1028900008260393CEE7CB464146039A0197022AC6
:1028A00065D1019B4A4C9C460023002298466BE070
:1028B0000300334399464ED0002E00D1BCE13000D6
:1028C00001F0CAF803000B3B1C2B00DDACE11D221C
:1028D000D31A5A460100DA4008398E4013003343B8
:1028E00099465B468B40984600233C4C0026241AB0
:1028F00003939FE751465A46114329D1002293463C
:102900000232B1E7594601431ED05B46002B00D18D
:102910009EE1584601F0A0F803000B3B1C2B00DDA4
:102920008FE102005946083A91408B461D21CB1A8F
:102930005146D9400B0059460B4351469B469140A6
:10294000264B00221B1A8FE7002301229B468BE7B0
:102950005146032288E700239846013304260024C9
:10296000039367E70323B14603930C2662E7032A28
:1029700000D15CE2019B012A00D0E4E113409C46B7
:10298000002300240022984600211203130B0A0D95
:1029900012051A432305124C404622401343624657
:1029A0005B00D2075B081343190007B03CBC90469C
:1029B0009946A246AB46F0BD002380229C461203F6
:1029C0009846034CE0E70023014C00229846DBE7E1
:1029D000FF07000001FCFFFF1C3D00000DFCFFFF96
:1029E000FFFF0F80D94500D939E100D134E1002340
:1029F00046464D469A46013C5B460A0E1B021A4368
:102A00000B02170C039313041B0C3900280090468B
:102A10000193FFF73BFA0200019B83465A432800CB
:102A200039009146FFF7B8FA350C09040D43A94562
:102A30000DD95B464544013BA84500D93AE1A9457B
:102A400000D837E102235B429C464544E3444B46B1
:102A5000EB1A390018000493FFF718FA019B0500E0
:102A60004343390004989946FFF796FA3304090462
:102A70001B0C0B43994509D943446A1E984500D95C
:102A80001AE1994500D817E1023D43444A469B1A92
:102A90005A4612042A4303999346100C0A0C914695
:102AA00009045A46090C4E460D001204120C454307
:102AB000059151437243704352190E0CB21895425E
:102AC00003D980256D02AC466044150C090412043C
:102AD000090C28185218834200D2CEE000D1C8E079
:102AE0001D1A53469E1AB24592415242AB1A9A465B
:102AF000984500D117E139001800FFF7C7F9019B8D
:102B000005004343390050460493FFF745FA049803
:102B10000B04310C1943884209D941446B1E884586
:102B200000D907E1884200D804E1023D4144049BFA
:102B3000CB1A180039000493FFF7A8F9019B8246CD
:102B40004343390004980193FFF726FA01980B04D8
:102B50003104090C194388420DD953464144013BC5
:102B6000884500D9E8E0884200D8E5E002235B42CE
:102B70009C464144E244019B2D04CE1A5146294310
:102B8000059D4F462A000B04080C1B0C5A43454375
:102B90007B4378435B19170CFB189D4203D98025B2
:102BA0006D02AC4660441D0C12041B04120C281864
:102BB0009B18864200D293E000D18EE00123194396
:102BC000A04BE318002B00DC99E04A0700D09EE000
:102BD0005A46D20106D55A469B4B1A40802393464B
:102BE000DB00E318994A934268DD0123029A984C6E
:102BF0001A400023944698460022C5E680224B46A0
:102C0000120313420AD05B46134206D11A43120341
:102C1000120BAC4688468E4CB6E64B461A4312035E
:102C2000120BBC468A4CAFE603005A46283B9A403A
:102C300000239146984657E6584600F00DFF203095
:102C400040E603005246283B9A400021934677E62F
:102C500000F002FF20305FE6884500D2C7E64B4611
:102C6000DE075D0843465B081E434346DB079A4682
:102C7000C2E60025924500D333E7039E5946B44689
:102C8000E244B245AD416D424544EB1801399845E7
:102C900007D2984200D97FE000D1BCE01D1A8B46D4
:102CA0001FE79845FAD1039D5545F2D943468B4617
:102CB0001D1A16E79B46CAE61500E7E65A46C908FC
:102CC00052070A435B0590465C0D5A460123029960
:102CD00052021940120B8C4656E6002B00D16FE7CA
:102CE00046444A1EB04529D91100864200D065E706
:102CF000039A934200D061E762E701214942012033
:102D0000C21A382A21DD029B03409C4638E60F2276
:102D10000A40042A00D15BE70A00111D914292414A
:102D20005242934454E7474BE318002BE5DD012260
:102D30005242F2E71D00FAE69A461CE7B04239D843
:102D40006ED011003AE702933AE71F2A3CDC2023B9
:102D50009B1A0C005846994098404B1E99415B467F
:102D6000D440D340204308431A00430709D00F231F
:102D70000340042B05D00100081D88429B415B42A3
:102D8000D21813023AD50123029A01241A400023D3
:102D9000944698460022F7E5022149428C46039D5D
:102DA000E344AC46E244AA45AD416D424544ED18CA
:102DB0002D1A96E68A1E03994D008D42894149429B
:102DC0004144761803958FE71F204042C31A5846A6
:102DD000D8400300202A28D040205D46821A954022
:102DE00029434A1E91411943072300220B4009D071
:102DF0000F2300220B400800042BBDD10100530714
:102E00005202120BC9081943012388460299002473
:102E100019408C46B8E55245BED88B46002560E681
:102E2000039D9D42C6D3110062E70025D8E78022AA
:102E30005B4612031A43019B1203120B9C46884601
:102E4000034CA1E5FF030000FFFFFFFEFE070000AB
:102E5000FF070000F0B557464546DE464E46E0B552
:102E60000C0398464E00230B87B0070092469B4602
:102E7000760DCD0F002E6BD06D4B9E4235D0802449
:102E80005B46420F2404DB0014431C43C3009946F5
:102E9000684BA3469C4600230027664402934346A2
:102EA0001C035A00DB0F5046240B520D984600D1EC
:102EB00076E05F4B9A426DD08023410F1B040B4399
:102EC0005C49E4008C461C43C30000206244414638
:102ED000B6186940721C0191944607430F2F00D920
:102EE000B0E0554ABF00D25997465B460343994626
:102EF00000D087E000239B46023308270293CEE7E9
:102F000042460192022867D0032800D10EE2012830
:102F100000D062E10023002400229946019901407B
:102F2000CDB2002112030B0D120B1B051343434AB4
:102F3000240513401C436400ED0764082C434846F5
:102F4000210007B03CBC90469946A246AB46F0BD76
:102F5000034399464FD05B46002B00D189E1584688
:102F600000F07AFD03000B3B1C2B00DD7AE11D22F3
:102F7000D31A3A0001005C46DA4008398C4013004D
:102F80008F4023439B46B94600232D4E0027361A17
:102F9000029384E7534623432AD10024022096E774
:102FA0005346234320D0002C00D157E1200000F0ED
:102FB00053FD03000B3B1C2B00DD49E11D21CB1A07
:102FC00051460200D9405346083A944093400C437E
:102FD0001B4A121A00207AE70125019B144C1D4060
:102FE0000023002299469CE70024002201206EE77E
:102FF000534603206BE700239B460133042700263A
:1030000002934CE7032381460C27029347E7802273
:103010000023002512039946054C82E75C464B4687
:1030200002986FE75C464B46019502986AE7C046F6
:10303000FF07000001FCFFFF5C3D0000FFFF0F8069
:103040000DFCFFFF4A464946170C1A0C1B041B0CCB
:1030500008041900000C41431500884619007D43FF
:103060007943039589462900150045434D4402954F
:1030700045462D0CAA46029D5544A94506D98A46C7
:10308000802149028946CA4451460391290C049182
:10309000414609042D04090C88462900250C240406
:1030A0004144240C05912100414388462100794385
:1030B0008A466843414650448146080C48446F4361
:1030C000824503D98021490289464F44010C894633
:1030D00039004944029141460F0404993F0C884647
:1030E0000004C01980444146049159460F0C09045C
:1030F000090C884659438A4639005143894641465E
:103100004A435146090C8B467B43D2185A4493429A
:1031100003D980235B029B46D94451460904090C1C
:103120008A46414661437C43130C12044B4452448B
:10313000A1468A463C0041466C434D4351464D44AE
:103140000F0C7D19A94503D98021490288464444C2
:10315000049F0399B84641448B46834580414142D0
:103160008846514608042F04000C3F18584602991F
:1031700010188946904292414F44BA4652429946AD
:103180009346C244D144CB448F42BF41C24589419A
:1031900099459B41934592417F4249422D0C5242B1
:1031A0000F435B4213437F19FF185B463C19DB0D4D
:1031B000059A64021C43430213435D1EAB415A4609
:1031C000C00D034352021343E20156D501205A08B1
:1031D00003401343E207134364085A48604400283D
:1031E0004DDD5A0709D00F221A40042A05D01A1DB6
:1031F0009A429B415B42E4181300E20104D580200F
:10320000514AC00014406044504A904200DDE3E659
:103210000125DB0862071A436402019B9146220BD9
:103220004405640D1D407CE680225946120311427C
:1032300008D0144206D122431203120B4546994688
:10324000434C6EE65B461A431203120B404C68E691
:1032500003005446283B9C400023B9E600F0FCFBE9
:103260002030A6E60300283B9F400023BB4699463A
:103270008AE600F0F1FB203074E6B446ADE70125A4
:103280002A1A382A06DD019B00241D400023002253
:10329000994646E61F2A21DC20252000AD1A1E0093
:1032A000AB40A840D6405D1EAB4130431843D440EC
:1032B000430709D00F230340042B05D00300181D3A
:1032C00098429B415B42E418230221D50125019BD2
:1032D00001241D4000230022994622E61F252100DB
:1032E0006D42281AC1400800202A1DD05F35AA1A55
:1032F000944023435C1EA341072503431D40002245
:10330000002D09D00F2200241A401800042AD6D11B
:10331000030065076402220BDB082B430125994655
:10332000019B00241D40FCE50024E2E780220125EA
:103330001203224301991203120B0D409946044CCB
:10334000EFE5C046FF030000FFFFFFFEFE070000A1
:10335000FF070000F0B54646D6464F460C03C0B501
:10336000CD0F4E00610A440F0C43C1005800400DC0
:1033700084468A460F001903500F490A0143C64884
:10338000760DA846DB0FD200844500D1D8E001209D
:103390004340AB4200D1A6E06046351A002D00DC68
:1033A00005E1002810D10B00134300D1D7E06B1EBC
:1033B000002B00D04BE153469F1ABA458041641A56
:1033C0004042241A01261EE0B34B9E4248D080237F
:1033D0001B041943382D00DD19E11F2D00DD4CE1E0
:1033E00020230F005B1B10009A409F40E840531EB3
:1033F0009A41E940074317435346DF1B611ABA4518
:10340000A44164420C1B230200D4C5E06402650A97
:10341000002D00D1F6E0280000F01EFB0300083B61
:103420001F2B00DDE9E020223C00D21A9D40D44051
:103430009F4025439E4200DDDBE09E1B731C1F2B3B
:1034400000DD0AE120223800D21A290097402C0022
:103450009140D8407A1E9741DC40002601430F433B
:103460007B0709D00F233B40042B05D03B1DBB42FB
:10347000BF417F42E4191F00230225D5864B013648
:103480009E4200D1AFE0854B01251C4043466207B8
:10349000FF08640276051743240B760D1D400021BA
:1034A0002403230B0C0D7E4A24051C4314403305D2
:1034B00023435B00ED075B082B43380019001CBC5D
:1034C00090469946A246F0BD012543466207FF0893
:1034D0001743E4081D40704B9E4236D02403760506
:1034E000240B760DDBE76346F31A002B00DC94E037
:1034F0006046002835D068488642B1D080273F0416
:103500003943382B00DCFDE00A43170000217A1E06
:103510009741574457458041091944420C192302E9
:103520003AD55D4B01369E4200D14BE101225B4B07
:103530001C407B0817401F43E207174364088FE7CE
:103540000800104300D024E721E723003B4300D1CB
:10355000B9E18022120314432403240B9FE72E00B9
:103560007EE70800104300D1CAE0581E84460028B8
:1035700000D0E7E05244524580416418404224188C
:1035800017000126230207D50226CFE764462C4305
:1035900000D1B3E12C0067467B0700D062E76307E8
:1035A000FF081F4301254346E4081D4093E7002D13
:1035B00078D1751C6D056D0D012D00DCF2E05046D3
:1035C000801A8245BF41651A7F42ED1B844628025E
:1035D00000D48CE05046171ABA4292410C1B554257
:1035E000651B984614E70125434600241D4000272B
:1035F00055E72A4CF61A2C4032E73D002838854022
:10360000002717E7380000F027FA203006E70A43C2
:10361000170000217A1E9741EEE6002B00D0E5E06E
:10362000731C9C465B055B0D012B00DC9FE01A4B75
:103630009C4500D1C5E05244524580416418404247
:103640002418E707520817436408664608E712483B
:10365000854200D185E01D00BCE629001F3EF140F7
:10366000202B00D17FE04022D31A9D402F437D1EA6
:10367000AF4100240F4300268EE72B000F00203BB4
:10368000DF40202D71D040235D1BA9400A43511E0D
:103690008A4100211743AFE6FF070000FFFF7FFFCD
:1036A000FFFF0F80002E3ED0B34EB44545D080269C
:1036B00036046D423443382D00DDA8E01F2D00DDB7
:1036C0001FE1202627005046761BB740E8400743FD
:1036D0005046B040461EB041EC403843171ABA423B
:1036E00092410C1B5242A41A664698468BE66446E9
:1036F00067462C4300D08BE6002500260027EAE62B
:103700001E00ADE61F2B60DC2027F81A0F00844650
:1037100087401000D840074360468240501E8241D7
:10372000D9401743F5E626005046064305D0ED4341
:10373000002DD3D0904EB445BDD10C001700664685
:1037400098468DE68C4883420BD06346D9E6002D1F
:1037500000D096E00800104300D1E2E00C00170012
:103760009846854E7CE6002580E700218EE7230001
:1037700050460343002E00D0A8E0002B00D1DEE02D
:103780000B00134300D16BE652445245804164184C
:10379000404224181700230200D4FDE6774B66460A
:1037A0001C405DE6250050460543002ECFD1002D7C
:1037B0004FD10C00144300D1A0E00C001700984634
:1037C0004EE666460024002785E61F000800203FDD
:1037D000F8400700202B00D18EE04020C31A99400A
:1037E0000A43511E8A410021174392E6002E14D14C
:1037F00026005046064362D0DB43002B5CD187187D
:103800009742924164185242A418664687E6504691
:103810002043441EA041002460E7574EB4454ED0DB
:10382000802636045B423443382B00DD7FE01F2BBB
:1038300000DD8BE0202627005046F61AB740D8401E
:1038400007435046B040461EB0410743DC40BF1816
:10385000D6E70D00154300D102E65046801A824596
:10386000BF41651A7F42ED1B8446280200D48DE6D5
:103870005046171ABA4292410C1B5242A41A98465B
:10388000EEE50D00154300D16BE750466707C00811
:1038900007438020E4080003044207D0CD08054216
:1038A00004D12C009846D70849070F437B0FE4004A
:1038B0001C43FF00304ED3E52F4EB445B4D10C006D
:1038C00017006646CCE500270024E8E5002B39D038
:1038D0000B00134300D144E7C0086707074380206B
:1038E000E40800030442E1D0CB080342DED1D7084C
:1038F00049070F431C00D9E7002171E70025002785
:10390000E9E52E002700203EF740202D2FD040264D
:10391000751BAC4050462043441EA0410024384350
:10392000DCE6802400252403134E0027D3E550460F
:1039300020430700781E87410024BF1860E70C0071
:1039400017008DE50C0017000B4E89E51E002700BF
:10395000203EF740202B0CD04026F31A9C405046C6
:103960002043441EA04107430024BF1848E7002419
:10397000D0E70024F3E7C046FF070000FFFF7FFF0A
:1039800030B5134D0A034B00120B5B0DC90F002419
:10399000AB4210DD0F4CA3420FDC80240E4D6403BC
:1039A0002243ED1A1F2D0BDD0C48C31ADA40544296
:1039B000002900D11400200030BD094BCC18FAE7D3
:1039C000084CE840A44663449A400243EFE7C046EF
:1039D000FE0300001D040000330400001304000077
:1039E000FFFFFF7FEDFBFFFF10B5041E28D000F0A6
:1039F00033F8154B154A1B1AD21A1F2A15DD144A23
:103A0000D21A9440002224035B05240B5B0D002195
:103A1000100024030A0D240B120522430D4C1B0534
:103A2000224013435B00590810BD210091400A0059
:103A30000B21081AC4405B052403240B5B0DE6E749
:103A4000002300240022E2E71E04000033040000EB
:103A500013040000FFFF0F801C2101231B04984268
:103A600001D3000C10391B0A984201D3000A08390F
:103A70001B09984201D30009043902A2105C4018C6
:103A80007047C0460403020201010101000000006A
:103A90000000000070B500260C4D0D4C641BA410F6
:103AA000A64209D1002600F079F90A4D0A4C641BA0
:103AB000A410A64205D170BDB300EB58984701365B
:103AC000EEE7B300EB5898470136F2E7A83D000057
:103AD000A83D0000A83D0000AC3D0000104B70B5B3
:103AE0001C680500A36B002B15D1182000F060F8AE
:103AF0000C4BA06303800C4B012243800B4B838053
:103B00000B4BC3800B4B0381052343810633838119
:103B10000023026143610022A36B1D615A6170BDE5
:103B2000380000200E330000CDABFFFF3412000040
:103B30006DE6FFFFECDEFFFF154B10B51C68A36BB5
:103B4000002B15D1182000F033F8124BA06303802E
:103B5000114B01224380114B8380114BC380114BC9
:103B6000038105234381063383810023026143617E
:103B7000A46B0D4A206961690C4BFEF7FDFA012226
:103B8000002380185941206161614800400810BD40
:103B9000380000200E330000CDABFFFF34120000D0
:103BA0006DE6FFFFECDEFFFF2D7F954C2DF45158A5
:103BB00010B5034B0100186800F004F810BDC046B2
:103BC00038000020032370B5CD1C9D430835060046
:103BD0000C2D1ED20C25A9421DD8300000F062F831
:103BE000254A14682100002919D1244C2368002B90
:103BF00003D1300000F044F820602900300000F0CC
:103C00003FF8431C2CD10C233000336000F04BF8FC
:103C100003E0002DDFDA0C233360002070BD0B6859
:103C20005B1B1AD40B2B03D90B60CC18256003E067
:103C30008C420ED163681360300000F034F820002D
:103C400007220B30231D9043C31AE7D05A42E2509B
:103C5000E4E74B6863600C00EEE70C004968C2E7DC
:103C60000323C41C9C43A042E0D0211A300000F082
:103C700007F8431CDAD1C6E7E0000020E40000208A
:103C8000002370B5064C050008002360FDF710FF07
:103C9000431C03D12368002B00D02B6070BDC046AD
:103CA0008C01002070477047002C00420030004219
:103CB0000034004200380042003C0042000800424C
:103CC000000C0042001000420014004200180042A4
:103CD000001C00421E1300001A1300001A130000FB
:103CE0008013000080130000321300002413000032
:103CF000381300006E130000641500004415000026
:103D000044150000D0150000561500007215000083
:103D10004815000080150000C0150000E4290000CF
:103D2000C6290000802900009E280000802900008C
:103D3000B8290000802900009E280000C629000044
:103D4000C6290000B82900009E280000962800001F
:103D50009628000096280000FC2B0000443000004C
:103D6000042F0000042F0000002F00001C30000072
:103D70001C3000000E300000002F00001C3000003E
:103D80000E3000001C300000002F00002430000026
:103D9000243000002430000028320000F8B5C0466E
:103DA000F8BC08BC9E467047DD000000F8B5C04670
:0C3DB000F8BC08BC9E467047B50000003F
:103DBC00401F0000080000000100000001000A0084
:103DCC0020000020000000000A0000002C00002051
:103DDC00FFFF00000000000000000000FFFF0000DB
:103DEC0000000000000000003C000020000000006B
:103DFC0000000000000000000000000000000000B7
:103E0C0000000000000000000000000000000000A6
:103E1C000000000000000000000000000000000096
:103E2C000000000000000000000000000000000086
:103E3C000000000000000000000000000000000076
:0C3E4C000000000000000000000000006A
:0400000300000119DF
:00000001FF
