:100000006820002019010000150100001501000002
:1000100000000000000000000000000000000000E0
:1000200000000000000000000000000015010000BA
:100030000000000000000000150100001501000094
:100040001501000015010000150100001501000058
:100050001501000015010000150100001501000048
:100060001501000015010000150100001501000038
:100070001501000015010000150100001501000028
:100080001501000015010000150100001501000018
:100090001501000015010000150100001501000008
:1000A000150100001501000015010000000000000E
:1000B0000000000010B5064C2378002B07D1054B3B
:1000C000002B02D0044800E000BF0123237010BDC4
:1000D0001000002000000000AC0E0000084B10B51E
:1000E000002B03D00749084800E000BF0748036819
:1000F000002B00D110BD064B002BFBD09847F9E731
:100100000000000014000020AC0E0000AC0E000047
:1001100000000000FEE70000F8B52A4A2A4B9A4288
:1001200011D01A00294B9A420DD2294A03339B1A47
:100130009B0801339B000022234822498C5884509D
:1001400004329A42FAD1234A234B9A420AD2D34329
:1001500021495B1803218B4304339B18002102C201
:100160009342FCD11D4AFF211D4B8B439360FD3907
:1001700090235B001B4AD1501B4AD3780325AB4325
:1001800002242343D370D3780C27BB430826334380
:10019000D370164B987B30229043202210439873E3
:1001A000997BB943314399739A7BAA4322439A734B
:1001B0000F4A536880210B4353600E4B98470E4BF8
:1001C0009847FEE7AC0E0000000000201000002061
:1001D00004000020100000206800002000ED00E076
:1001E0000000000000700041005000410048004144
:1001F00000400041010E0000050D000001680322CF
:10020000CB691A42FCD1704770B502680023042400
:1002100001250226117E21420ED1117E29420DD1E7
:10022000117E314206D101339BB2C1889942F1D887
:10023000122002E0002000E0002070BD0020FCE75A
:10024000F0B585B005000C00160029600B681C2075
:100250009B0701D505B0F0BD0B681738DB07F9D453
:100260000800434B9847434B9C46196A831C01275F
:100270003A009A4013000B436246136203A9337E8F
:100280000B701430C3B2019318003B4B9847019890
:100290003A4B9847307E0021394B98471023236012
:1002A0002C683389EB80337C2B72802302AA137075
:1002B000002353709770D370F069356A00284BD0D3
:1002C00002AB1870022302AA5370000CC0B21100D6
:1002D0002C4B9847002D44D002AB1D70022302AA7C
:1002E00053702D0CE8B21100264B9847737E802284
:1002F000002B04D1244B9B789B07DB0FDA012523CD
:10030000F35C002B04D180239B047169994202D1D4
:1003100080231B051A432068736871690B432421ED
:10032000715C89070B432621715CC9050B430343AC
:1003300013432360728980235B0013436360B38996
:100340005B00F28952041343727C1343327CD20364
:100350001343636200207DE7002120000B4B984788
:10036000AEE701212000094B98470500B4E7C046DD
:10037000B507000000040040E10B0000550B000031
:10038000F1050000A50C0000002000413D06000022
:10039000F0B5DE4657464E464546E0B583B006000A
:1003A0000D000C881720002C06D103B03CBC9046F1
:1003B0009946A246AB46F0BD376830003A4B9847A5
:1003C0000028F2D13B7E1C309B07EED5337A002B00
:1003D00013D17A8B432310201A42E6D17B8B1B0763
:1003E00020D47A688023DB0213437B607A68C023C1
:1003F0009B0213437B600A30D7E77B682B4A13408C
:100400007B607A68C0239B0213437B603000264BDD
:10041000984703001220002BC7D13B7E0A309B0770
:10042000C3D5D6E77B68214A13407B607A68C02336
:100430009B0213437B6030001B4B98470028B4D1CC
:10044000013CA4B200239946194B9B4628239846A9
:10045000154B9A460DE07A6880239B0213437B601C
:100460001E30A2E7631E9BB2019A9146002C15D064
:100470001C003000D8474B4601339BB201936B6898
:100480004A469B5C4246BB543000D047002800D00F
:100490008BE77B8B5B07E5D5002CDCD17A6880236A
:1004A0009B0213437B6080E709020000FFFFFBFF14
:1004B000FD010000F8B5DE4657464E464546E0B51C
:1004C00007000E000D881724002D06D120003CBC2B
:1004D00090469946A246AB46F8BD03689846384B0D
:1004E0009847041EF2D143461B7E1C349B07EDD572
:1004F00043465A8B43230C3C1A42E7D143465B8B5D
:100500001B070ED543465A688023DB02134342463D
:1005100053605268C0239B021343424653600A341F
:10052000D4E743465B68274A13404246536052680B
:10053000C0239B02134342465360013DADB26B1C86
:10054000994600251E4B9A4601239B463800D0470A
:10055000041EBBD143461B7E5A4613422BD1434651
:100560001B7E9B0727D43800174B98472823424609
:10057000D35C7268535501354D45E7D13800104BB7
:10058000984743461B7E5B070CD543465A68802339
:10059000DB02134342465360526880239B0213439D
:1005A0004246536043461B7EDB0700D48EE701239F
:1005B000424613768AE7012342461376042485E7F0
:1005C00009020000FFFFFBFFFD01000010B50468F9
:1005D000064B98470223002801D0180010BD227E48
:1005E0009207FAD5638B1B07DB0FF6E709020000C1
:1005F00010B582B004000E4B1B78002B07D00029E9
:1006000005D10B4B5B78834210D01D200CE001A973
:100610000C701320074B98471320074B9847044B47
:100620005C7001221A70002002B010BD0020FBE7B0
:100630002C000020E10B0000550B0000404B9842BD
:1006400031D00AD93F4B98424DD03F4B98425AD0B7
:100650003E4B984237D0002070473D4B98420CD01B
:100660003C4B9842F7D1012917D000295DD00229CF
:1006700015D0032915D00020EEE7012907D0002965
:1006800051D0022905D0032905D00020E4E73248E3
:10069000E2E73248E0E73248DEE73248DCE732485A
:1006A000DAE73248D8E7012907D000293FD00229EC
:1006B00005D0032905D00020CEE72D48CCE72D48F2
:1006C000CAE72D48C8E7012907D0002931D00229FF
:1006D00005D0032905D00020BEE72848BCE72848FC
:1006E000BAE72848B8E7012907D0002923D0022912
:1006F00005D0032905D00020AEE72348ACE7234806
:10070000AAE72348A8E7012907D0002915D0022924
:1007100005D0032905D000209EE71E489CE71E480F
:100720009AE71E4898E71E4896E7032094E71D487D
:1007300092E71D4890E71D488EE71D488CE7C046AC
:100740000010004200180042001C00420014004249
:1007500000080042000C00420300050003000600F0
:10076000030007000300010003001E0003001F0038
:1007700002000D0002000E0002000F000300110035
:10078000030012000300130005003F0005003E00B7
:1007900005005200030017000300180003001900B1
:1007A0000300040002000C000300100005005300C9
:1007B0000300160030B587B00B4B6A4632CB32C20D
:1007C00032CB32C2009B83420BD001239A00694690
:1007D0005258824206D00133062BF7D1002007B0D1
:1007E00030BD0023D8B2FAE7480E00000C4B1B685E
:1007F000002B06D1EFF31083002B07D00022094B0A
:100800001A70074A136801331360704772B6BFF35A
:100810005F8F0022044B1A700132024B1A70F0E70E
:10082000300000203400002000000020084B1A682F
:10083000013A1A601B68002B09D1064B1B78002B6C
:1008400005D00122044B1A70BFF35F8F62B6704768
:10085000300000203400002000000020F0B583B0FC
:1008600001AC012565700027A770257021001320B9
:10087000064EB04780221203054B9A6127706570BF
:1008800021001C20B04703B0F0BDC0469508000011
:100890000044004100B583B001AB80221A700A7891
:1008A0005A704A789A708A78DA701900014B984722
:1008B00003B000BDA50C000070B50C490B6A0478AC
:1008C000857840780122104080014026B3430343DD
:1008D0002A40D20180208343134303222240120284
:1008E0000348034013430B6270BDC046000800403C
:1008F000FFFCFFFF082803D88000254B1B589F46AC
:10090000172044E0234A136A02210B43136200209C
:100910003DE0204A936902210B439361002036E0B9
:100920001C4A138A02210B43138200202FE0194A2C
:10093000938A02210B439382002028E016490B681A
:10094000022213430B60134B9A8419000E32CB68BA
:100950001A42FCD0104A91680E4BD96252689A62D2
:1009600000229A8419001032CB681A42FCD00A4B3C
:100970001B689BB2074A9384002008E00549442283
:100980008B5C022003438B54002000E00020704762
:10099000600E0000000800403800002030B585B02F
:1009A000C222D2001A4B9A601A4A53681E218B4306
:1009B000536001236A4613700024174DE0B2694664
:1009C000A8470134252CF9D103A80024447001253F
:1009D00085700470114B98470620114B9847114BB6
:1009E0009847114B1C725C729C72DC7201956B46CD
:1009F0005C7006236A4613701472547269460020B4
:100A00000A4B984700200A4B984705B030BDC046B6
:100A10000008004000400041E10B0000B908000060
:100A2000F5080000350A000000040040590A0000E3
:100A3000110B0000064A936908210B4393610122C0
:100A4000044B1A7019000B781342FCD17047C04652
:100A500000040040000C004070B5060004000D7852
:100A60002D0205434B78002B02D08023DB021D436F
:100A70004B7A002B02D080231B031D4348680128BA
:100A800010D9431E184234D1022830D90223002243
:100A900001325B009842FBD81202324314008023DB
:100AA0005B031D430B7A002B02D080239B031D4365
:100AB000134A53785BB2002BFBDB124B9847124B67
:100AC0001E700F4A53785BB2002BFBDB0C4B9C6013
:100AD0001A0053785BB2002BFBDB094A5368802174
:100AE00049020B401D435560084B984770BD0022DA
:100AF000D2E70402344380239B021D43D2E7C04661
:100B0000000C0040ED070000080C00402D0800001C
:100B100010B504000B4A53785BB2002BFBDB0A4B89
:100B200098470A4B1C70074A53785BB2002BFBDBDB
:100B3000044A516880235B020B435360044B98477F
:100B400010BDC046000C0040ED070000040C004042
:100B50002D08000010B50400064B9847064B1C708A
:100B6000064A53888021C9010B435380044B9847A0
:100B700010BDC046ED070000020C0040000C004014
:100B80002D08000010B504000F4B98470F4B1C7048
:100B90000F4A53881B05180F53880E490B4053808A
:100BA00053880D490B40538011008022D2014B889D
:100BB0001342FCD106494A88030206480240134307
:100BC0004B80064B984710BDED070000020C00401B
:100BD000000C0040FFF0FFFFFFBFFFFF2D080000EB
:100BE00010B50C7824020443024B9847A4B2024B80
:100BF0005C8010BD850B0000000C004030B5D37840
:100C0000002B35D11378802B29D01B068024640259
:100C1000234354780225AC4306D19478002C20D18C
:100C20008024A402234341605478013C012C1CD948
:100C30000D042D0CA024E4052C431C4384620D0CF0
:100C4000D02424062C431C438462D478002C22D167
:100C50005B031CD59378012B1ED0416117E0002364
:100C6000D7E7C024E4022343DDE70D4C2340DFE750
:100C700041600C04240CA023DB05234383620C0C8D
:100C8000D0231B0623438362D378002B03D15378F0
:100C9000013B012B02D930BD8161F8E78160FAE7A1
:100CA000FFFFFBFF10B50A00C1090023002904D192
:100CB0004309DB0105498C4663441F242040012180
:100CC00081401800024B984710BDC04600440041C7
:100CD000FD0B00007047000010B5054B9847054B11
:100CE0009847054B9847054B9847054B984710BDCB
:100CF0009D0900005D080000D50C0000D50C000027
:100D0000D50C000070B58CB02F4B984701236A4674
:100D10005370002494701370694613202B4B98472E
:100D2000802212032A4B9A616B461C7080239B031E
:100D3000019300236A465481D4811374537405943B
:100D400013765376242269468B5401328B54013238
:100D50008B5412236A468B811E4B07931E4B0893BC
:100D6000FA239B000B811D4C1D4920001D4B984709
:100D700023680322D9690A42FCD11A6802210A4376
:100D80001A600AAA184B03CB03C2144D174C184E15
:100D900009E0184B0B930AA91048174B98470B9B77
:100DA0001B79042B0BD02800A0470028F1D0012884
:100DB000F9D10B960AA90948104B9847F3E780220E
:100DC0001203034B5A61EEE7D90C000095080000AE
:100DD0000044004102001000020011005C000020ED
:100DE000000C004241020000840E0000CD0500000E
:100DF0000400002050000020B50400009103000012
:100E000070B500260C4D0D4C641BA410A64209D1F0
:100E1000002600F03BF80A4D0A4C641BA410A642C1
:100E200005D170BDB300EB5898470136EEE7B3002B
:100E3000EB5898470136F2E7980E0000980E000034
:100E4000980E00009C0E000000080042000C0042BA
:100E5000001000420014004200180042001C004232
:100E60002009000000090000000900008C090000B2
:100E7000120900002E090000040900003C090000CE
:100E80007C0900000A00000004000020F8B5C046FC
:100E9000F8BC08BC9E467047DD000000F8B5C046AF
:0C0EA000F8BC08BC9E467047B50000007E
:100EAC000100000000010203040506070809000008
:0400000300000119DF
:00000001FF
