S0140000736C6176655F746573745F312E7372656346
S11300006020002019010000150100001501000006
S113001000000000000000000000000000000000DC
S113002000000000000000000000000015010000B6
S11300300000000000000000150100001501000090
S11300401501000015010000150100001501000054
S11300501501000015010000150100001501000044
S11300601501000015010000150100001501000034
S11300701501000015010000150100001501000024
S11300801501000015010000150100001501000014
S11300901501000015010000150100001501000004
S11300A0150100001501000015010000000000000A
S11300B00000000010B5064C2378002B07D1054B37
S11300C0002B02D0044800E000BF0123237010BDC0
S11300D00C000020000000005C0F0000084B10B56D
S11300E0002B03D00749084800E000BF0748036815
S11300F0002B00D110BD064B002BFBD09847F9E72D
S113010000000000100000205C0F00005C0F0000E5
S113011000000000FEE70000F8B52A4A2A4B9A4284
S113012011D01A00294B9A420DD2294A03339B1A43
S11301309B0801339B000022234822498C58845099
S113014004329A42FAD1234A234B9A420AD2D34325
S113015021495B1803218B4304339B18002102C2FD
S11301609342FCD11D4AFF211D4B8B439360FD3903
S113017090235B001B4AD1501B4AD3780325AB4321
S113018002242343D370D3780C27BB43082633437C
S1130190D370164B987B30229043202210439873DF
S11301A0997BB943314399739A7BAA4322439A7347
S11301B00F4A536880210B4353600E4B98470E4BF4
S11301C09847FEE75C0F0000000000200C000020B0
S11301D0040000200C0000205C00002000ED00E082
S11301E00000000000700041005000410048004140
S11301F000400041950E0000910C000070B50020F5
S1130200084B98470500084CFA218900A047074B82
S1130210186007492800A047064B18600522064BC2
S11302201A6070BDDD0900007D0D00000000002093
S113023040420F000400002010E000E030B5084BFD
S11302401C68084A002580214902013807D3002C84
S1130250FBD05460956013680B42FCD0F5E730BDC9
S11302600400002010E000E030B5084B1C68084A88
S1130270002580214902013807D3002CFBD05460AB
S1130280956013680B42FCD0F5E730BD00000020F8
S113029010E000E0F0B585B005000C001600296000
S11302A00B681C209B0701D505B0F0BD0B681738FF
S11302B0DB07F9D40800434B9847434B9C46196A23
S11302C0831C01273A009A4013000B4362461362D1
S11302D003A9337E0B701430C3B2019318003B4B57
S11302E0984701983A4B9847307E0021394B9847FC
S11302F0102323602C683389EB80337C2B7280239A
S113030002AA1370002353709770D370F069356A92
S113031000284BD002AB1870022302AA5370000CC1
S1130320C0B211002C4B9847002D44D002AB1D7075
S1130330022302AA53702D0CE8B21100264B9847F1
S1130340737E8022002B04D1244B9B789B07DB0F08
S1130350DA012523F35C002B04D180239B0471690B
S1130360994202D180231B051A432068736871697E
S11303700B432421715C89070B432621715CC90559
S11303800B43034313432360728980235B001343AD
S11303906360B3895B00F28952041343727C134394
S11303A0327CD2031343636200207DE700212000E6
S11303B00B4B9847AEE701212000094B98470500F5
S11303C0B4E7C046A905000000040040F50A000097
S11303D0690A0000E5030000ED0B00000020004165
S11303E03104000010B582B004000E4B1B78002BC2
S11303F007D0002905D10B4B5B78834210D01D2018
S11304000CE001A90C701320074B98471320074BED
S11304109847044B5C7001221A70002002B010BD92
S11304200020FBE728000020F50A0000690A00000C
S1130430404B984231D00AD93F4B98424DD03F4B64
S113044098425AD03E4B984237D0002070473D4BDB
S113045098420CD03C4B9842F7D1012917D000297F
S11304605DD0022915D0032915D00020EEE701291B
S113047007D0002951D0022905D0032905D0002036
S1130480E4E73248E2E73248E0E73248DEE7324860
S1130490DCE73248DAE73248D8E7012907D00029F7
S11304A03FD0022905D0032905D00020CEE72D48EE
S11304B0CCE72D48CAE72D48C8E7012907D0002911
S11304C031D0022905D0032905D00020BEE72848F1
S11304D0BCE72848BAE72848B8E7012907D000292B
S11304E023D0022905D0032905D00020AEE72348F4
S11304F0ACE72348AAE72348A8E7012907D0002945
S113050015D0022905D0032905D000209EE71E48F6
S11305109CE71E489AE71E4898E71E4896E7032082
S113052094E71D4892E71D4890E71D488EE71D4853
S11305308CE7C0460010004200180042001C004234
S11305400014004200080042000C004203000500B1
S113055003000600030007000300010003001E005F
S113056003001F0002000D0002000E0002000F0035
S113057003001100030012000300130005003F00F4
S113058005003E0005005200030017000300180098
S1130590030019000300040002000C000300100013
S11305A0050053000300160030B587B00B4B6A46B4
S11305B032CB32C232CB32C2009B83420BD00123F6
S11305C09A0069465258824206D00133062BF7D16D
S11305D0002007B030BD0023D8B2FAE7DC0E0000DB
S11305E00C4B1B68002B06D1EFF31083002B07D0B4
S11305F00022094B1A70074A1368013313607047CD
S113060072B6BFF35F8F0022044B1A700132024BA3
S11306101A70F0E72C0000203000002008000020B1
S1130620084B1A68013A1A601B68002B09D1064B63
S11306301B78002B05D00122044B1A70BFF35F8F87
S113064062B670472C000020300000200800002013
S1130650F0B583B001AC012565700027A770257043
S113066021001320064EB04780221203054B9A61E5
S11306702770657021001C20B04703B0F0BDC04650
S1130680890600000044004100B583B001AB80221C
S11306901A700A785A704A789A708A78DA7019004F
S11306A0014B984703B000BDED0B000010B50828BE
S11306B003D880001C4B1B589F46002032E01B4B84
S11306C018692FE01A4B1B6A9B059B0F1948D840E9
S11306D028E0164B586925E0144B1B6800209B0743
S11306E020D513491022CB681A42FCD00F4B1A684C
S11306F024231340042B01D00F4813E000200F4B98
S113070098470A4B9B681B041B0C58430AE0502370
S1130710074AD35C00205B0704D5044BD86801E08A
S11307208020000210BDC046F40E000034000020FA
S11307300008004000127A00006CDC02110B00007B
S113074070B50C490B6A0478857840780122104012
S113075080014026B34303432A40D20180208343CF
S113076013430322224012020348034013430B6243
S113077070BDC04600080040FFFCFFFF082803D8F6
S11307808000254B1B589F46172044E0234A136AD8
S113079002210B43136200203DE0204A93690221A9
S11307A00B439361002036E01C4A138A02210B4359
S11307B0138200202FE0194A938A02210B4393826B
S11307C0002028E016490B68022213430B60134BE8
S11307D09A8419000E32CB681A42FCD0104A9168F0
S11307E00E4BD96252689A6200229A841900103220
S11307F0CB681A42FCD00A4B1B689BB2074A93840D
S1130800002008E0054944228B5C022003438B54FA
S1130810002000E000207047180F0000000800408E
S11308203400002030B585B0C222D2001A4B9A6041
S11308301A4A53681E218B43536001236A4613707E
S11308400024174DE0B26946A8470134252CF9D19C
S113085003A800244470012585700470114B984747
S11308600620114B9847114B9847114B1C725C7230
S11308709C72DC7201956B465C7006236A461370A9
S113088014725472694600200A4B984700200A4BA0
S1130890984705B030BDC046000800400040004104
S11308A0F50A0000410700007D070000BD080000B4
S11308B000040040E108000099090000064A936919
S11308C008210B4393610122044B1A7019000B7821
S11308D01342FCD17047C04600040040000C0040A5
S11308E070B5060004000D782D0205434B78002BEB
S11308F002D08023DB021D434B7A002B02D08023DD
S11309001B031D434868012810D9431E184234D1E3
S1130910022830D90223002201325B009842FBD81E
S113092012023243140080235B031D430B7A002B15
S113093002D080239B031D43134A53785BB2002BE0
S1130940FBDB124B9847124B1E700F4A53785BB275
S1130950002BFBDB0C4B9C601A0053785BB2002B22
S1130960FBDB094A5368802149020B401D43556053
S1130970084B984770BD0022D2E704023443802319
S11309809B021D43D2E7C046000C0040E105000075
S1130990080C00402106000010B504000B4A5378EF
S11309A05BB2002BFBDB0A4B98470A4B1C70074ACF
S11309B053785BB2002BFBDB044A516880235B0253
S11309C00B435360044B984710BDC046000C0040D5
S11309D0E1050000040C00402106000070B504008D
S11309E01A4A53785BB2002BFBDB194B9847194B1F
S11309F01C70164A53785BB2002BFBDB134E7068F5
S1130A00C004C00E144B98470500124B1C70766846
S1130A10F602F60F114B1C700C4A53785BB2002B94
S1130A20FBDB0A4B9C682402240C0D4B9847002ED8
S1130A3007D1012C07D9210028000A4B984705004B
S1130A4001E00134E540280070BDC046000C0040C0
S1130A50E1050000040C0040AD060000080C004055
S1130A60210600007D0D000010B50400064B9847D8
S1130A70064B1C70064A53888021C9010B435380DE
S1130A80044B984710BDC046E1050000020C00402D
S1130A90000C00402106000010B504000F4B9847DD
S1130AA00F4B1C700F4A53881B05180F53880E49AF
S1130AB00B40538053880D490B4053801100802212
S1130AC0D2014B881342FCD106494A8803020648E6
S1130AD0024013434B80064B984710BDE1050000CC
S1130AE0020C0040000C0040FFF0FFFFFFBFFFFFBF
S1130AF02106000010B50C7824020443024B9847E9
S1130B00A4B2024B5C8010BD990A0000000C0040A6
S1130B1010B50400064B9847064B1C70064B5C88C6
S1130B202405240F054B98472000054B984710BD1A
S1130B30E1050000020C0040000C0040210600000A
S1130B40DD09000030B5D378002B35D11378802B24
S1130B5029D01B0680246402234354780225AC4325
S1130B6006D19478002C20D18024A4022343416030
S1130B705478013C012C1CD90D042D0CA024E4054F
S1130B802C431C4384620D0CD02424062C431C43A8
S1130B908462D478002C22D15B031CD59378012B7A
S1130BA01ED0416117E00023D7E7C024E4022343A9
S1130BB0DDE70D4C2340DFE741600C04240CA02347
S1130BC0DB05234383620C0CD0231B06234383627F
S1130BD0D378002B03D15378013B012B02D930BDCC
S1130BE08161F8E78160FAE7FFFFFBFF10B50A00B7
S1130BF0C1090023002904D14309DB0105498C46BE
S1130C0063441F242040012181401800024B98476F
S1130C1010BDC04600440041450B00007047000071
S1130C2010B5054B9847054B9847054B9847054B1E
S1130C309847054B984710BD250800005106000051
S1130C401D0C00001D0C00001D0C000000B583B03D
S1130C5001A901234B7000228A700B700720034BFB
S1130C6098478022024B5A6103B000BD89060000F8
S1130C700044004170B5044C8025A5613220034B2B
S1130C809847656170BDC046004400413D020000C4
S1130C9070B58AB02A4B98472A4B984701236A4675
S1130CA0537000249470137069461320264B9847A0
S1130CB080221203254B9A616B461C7080239B0390
S1130CC0019300236A465481D481137453740594A8
S1130CD013765376242269468B5401328B540132A5
S1130CE08B5412236A468B81194B0793194B089333
S1130CF0FA239B000B81184C18492000184B984785
S1130D0023680322D9690A42FCD11A6802210A43E2
S1130D101A60144B98470122134B1A70BFF35F8F6C
S1130D2062B6124C124E250002E01248124B98474C
S1130D302368002BF9D1B04701232B60F5E7C046A7
S1130D40210C0000FD010000890600000044004160
S1130D50020010000200110050000020000C0042AC
S1130D60950200004D0C0000080000204C000020FB
S1130D70750C0000B80B0000690200000022430853
S1130D808B4274D303098B425FD3030A8B4244D34F
S1130D90030B8B4228D3030C8B420DD3FF22090291
S1130DA012BA030C8B4202D31212090265D0030B50
S1130DB08B4219D300E0090AC30B8B4201D3CB0346
S1130DC0C01A5241830B8B4201D38B03C01A524188
S1130DD0430B8B4201D34B03C01A5241030B8B428A
S1130DE001D30B03C01A5241C30A8B4201D3CB0275
S1130DF0C01A5241830A8B4201D38B02C01A52415A
S1130E00430A8B4201D34B02C01A5241030A8B425C
S1130E1001D30B02C01A5241CDD2C3098B4201D374
S1130E20CB01C01A524183098B4201D38B01C01AF2
S1130E30524143098B4201D34B01C01A5241030969
S1130E408B4201D30B01C01A5241C3088B4201D318
S1130E50CB00C01A524183088B4201D38B00C01AC5
S1130E60524143088B4201D34B00C01A5241411AEC
S1130E7000D20146524110467047FFE701B50020F9
S1130E8000F006F802BDC0460029F7D076E77047A7
S1130E907047C04670B500260C4D0D4C641BA41061
S1130EA0A64209D1002600F049F80A4D0A4C641BF9
S1130EB0A410A64205D170BDB300EB589847013683
S1130EC0EEE7B300EB5898470136F2E7480F00000D
S1130ED0480F0000480F00004C0F000000080042BB
S1130EE0000C0042001000420014004200180042AE
S1130EF0001C0042BE060000BA060000BA0600004C
S1130F002007000020070000D2060000C4060000ED
S1130F10D80600000E070000A8070000880700009C
S1130F2088070000140800009A070000B6070000B4
S1130F308C070000C407000004080000F8B5C04690
S1130F40F8BC08BC9E467047DD000000F8B5C046FA
S10F0F50F8BC08BC9E467047B5000000C9
S10F0F5C401F000008000000010000001D
S9030119E2
